:1070000058C000008BC000006FC000006DC00000C1
:107010006BC0000069C0000067C0000065C00000D0
:1070200063C0000061C000005FC000005DC00000E0
:107030005BC0000059C0000057C0000055C00000F0
:1070400053C0000051C000004FC000004DC0000000
:107050004BC0000049C0000047C0000045C0000010
:1070600043C0000041C000000403090412034100B2
:10707000640061006600720075006900740010030E
:10708000550053004200740069006E00790012013F
:107090001001FF00000881179F0C0501010200018B
:1070A0000902120001010080320904000000000002
:1070B000000011241FBECFEFD8E0DEBFCDBF11E02E
:1070C000A0E0B1E0E4E7F8E702C005900D92A2303D
:1070D000B107D9F711E0A2E0B1E001C01D92AE33D3
:1070E000B107E1F753D3C4C38BCFA82FB92F80E0EA
:1070F00090E041E050EA609530E009C02D91822790
:107100009795879510F084279527305EC8F36F5FB9
:10711000A8F30895EADF8D939D930895CF93CFB799
:10712000CF93C395189BE9F7189B09C0189B07C01C
:10713000189B05C0189B03C0189B01C0A1C0DF931A
:10714000C0912101DD27C85DDE4F189B02C0DF9191
:10715000EBCF2F930F931F9303B12FEF00FB20F979
:107160004F933F9313B14FEF012700FB21F93BE011
:1071700031C04E7F012F13B1216028C0102F4D7FE9
:107180002260000003B129C04B7F2460012F000062
:1071900013B12BC013B1477F28602AC04F7E03B1C3
:1071A00020612CC04F7D13B120622FC04F7B03B1F3
:1071B000206432C0422703B149934FEF00001027EB
:1071C00010FB20F913B11370C9F1297F91F2012747
:1071D00000FB21F903B1237F89F2315058F11027C8
:1071E00010FB22F913B1277E79F2012700FB23F966
:1071F0002F7C81F203B1102710FB24F92F7971F253
:1072000000C013B1012700FB25F92F7359F200C00C
:1072100003B1102710FB26F9223040F200C013B151
:10722000012700FB27F9243028F64F77206813B197
:107230000000F9CF11E01CBB002717C03B5031956F
:10724000C31BD04011E01CBB0881033CE9F00B34A8
:10725000D9F020911F011981110F1213EDCF0936BA
:1072600041F10D3211F0013E39F7009326013F91B3
:107270004F911F910F912F91DF91CCB3C0FD51CF52
:10728000CF91CFBFCF91189520912601222379F37A
:1072900010912401112311F5343012F1309324019F
:1072A00020932001109121013BE0311B30932101FB
:1072B00017C00091240101308CF40AE530910001DF
:1072C00034FD10C000930001C4E1D1E00FC0279548
:1072D000A8F45150A9F4220F0000F9CF4AE503C0E9
:1072E00042ED01C0432FC4E1D0E032E014B113609D
:1072F000289A14B905B120E413E05F93012756E002
:1073000005B9279520F4515021F4220FF9CF012718
:1073100056E000003B5A05B9D0F2279528F45150A9
:1073200029F4220F0000F9CF012756E0279505B96F
:1073300020F4515021F4220FF9CF012756E0299172
:10734000332305B921F60C7F10912501110FC65189
:10735000D04005B911F010931F0111E01CBB016072
:1073600014B11C7F402F4C7F5F9100C000C005B955
:1073700014B945B97CCF809105018823B1F0F89408
:10738000E0910801F0910901329785E08093570060
:10739000E895789407B600FCFDCFF89481E18093DE
:1073A0005700E8957894109205010895CF92DF92E6
:1073B000EF92FF920F931F93CF93DF93909124014D
:1073C000935097FD45C1809121010CE010E0081B0E
:1073D0001109085D1E4FFF24F394F0920201809181
:1073E00020018D3209F0D4C0983009F02FC183EC10
:1073F000809314018AE58093000110920601D80160
:107400008C91807609F453C011962C91222311F4AB
:1074100028E0A9C0213009F4A6C0263021F4ABDF52
:10742000F09207013BC02730F9F4A5DF8CE091E032
:107430009093230180932201F801938190930E0190
:107440008281803369F4992359F4E481F0E0EE0FEE
:10745000FF1F81E280935700849180930F0102C047
:1074600010920F0124E07FC02E3019F484DF21E058
:107470007AC0283011F47FDF11C0D80114968D91A5
:107480009C911597909309018093080116968C9111
:1074900080930B01822F8950843010F020E063C06C
:1074A00020930A012A3009F462C165DF60C1F80146
:1074B000928110921D018181882321F410921E0176
:1074C00022E04BC0853019F49093250145C08630E9
:1074D000A1F5D80113968C91813019F48EE890E7CC
:1074E00017C0823019F480EA90E712C0833001F5AA
:1074F000F8018281882341F488E690E79093230184
:107500008093220124E015C0813041F48CE690E79D
:10751000909323018093220122E10BC0823041F439
:107520008EE790E7909323018093220120E101C030
:1075300020E080E48093060116C0883021F421E029
:1075400087E291E00CC0893019F49093270104C0C0
:107550008A3011F421E001C020E08DE191E09093A8
:10756000230180932201D80117968C91882339F04A
:107570000BC0F801968180E88093060106C0D8010F
:1075800016969C91921708F0922F909301015EC07D
:107590008091060187FF5AC080910B01F92E89174F
:1075A00008F4F82EE82EEF18E0920B0180910A0102
:1075B0008C3099F4E8010CC0809108019091090188
:1075C000019690930901809308010197699142D136
:1075D000FE01E01BEF1580F335C08A3009F032C0A0
:1075E000E80183E0C82EDD24D39428C0E09108018F
:1075F000F0910901CF018F779070892B41F4F894B5
:10760000C0925700E895789407B600FCFDCFD09261
:107610000501F894888199810C01D0925700E89572
:1076200011247894CF010296909309018093080168
:107630008F779070892B09F49EDE22969E01201B85
:107640002F15A0F2EE2011F41092010110922401E6
:107650008091000184FF80C0809101018F3F09F477
:107660007BC0182F893008F018E0811B809301013E
:107670008091140198E8892780931401112309F45B
:1076800059C08091060187FF30C080910B0181179E
:1076900008F4182F811B80930B0100910A01C5E1AA
:1076A000D1E0E12EFF24EC0EFD1E1BC00B3039F49F
:1076B0008091080190910901C5D0888308C00930E4
:1076C00031F4E0910801F0910901E491E8832196F9
:1076D000809108019091090101969093090180938E
:1076E0000801CE15DF0511F723C02091220130914A
:1076F000230186FF0AC0912FF901A5E1B1E0849131
:107700008D9331969150D9F708C0912FD901E5E1B9
:10771000F1E08D9181939150E1F7C90101961150EB
:10772000810F911D1F5F909323018093220102C05E
:10773000193060F485E191E0612FECDC612F6C5F22
:107740006C3041F08FEF8093010104C08FEF809384
:1077500001016EE16093000194E183B1837069F4EB
:107760009150D9F71092250110921F0106C0D8013F
:107770008C9187FDFECE9FEFFECEDF91CF911F91C2
:107780000F91FF90EF90DF90CF90089584B7877F9F
:1077900084BF88E10FB6F894809360001092600077
:1077A0000FBE81E085BF82E085BF85E080938100C8
:1077B00080916900826080936900E89A209A8091A4
:1077C000840090918500885B9B40C8F32098789452
:1077D000259A2D9AEBDD80910201882339F480915E
:1077E0008400909185008050994820F48091070191
:1077F000882381F3109285001092840001C0D6DDA9
:1078000080910701882339F0809184009091850050
:10781000885B9B40A0F3109281001092850010922B
:1078200084001DBA1092690081E085BF15BE2598BD
:107830002D98F894E0910301F0910401099580E0FE
:1078400090E00895F999FECF92BD81BDF89A9927ED
:1078500080B50895262FF999FECF1FBA92BD81BD3C
:1078600020BD0FB6F894FA9AF99A0FBE01960895C2
:04787000F894FFCFBA
:027874005AFFB9
:040000030000700089
:00000001FF
